{
  "contractName": "SimpleAuction",
  "abi": [
    {
      "inputs": [
        {
          "internalType": "uint256",
          "name": "biddingTime",
          "type": "uint256"
        },
        {
          "internalType": "address payable",
          "name": "beneficiaryAddress",
          "type": "address"
        }
      ],
      "stateMutability": "nonpayable",
      "type": "constructor"
    },
    {
      "inputs": [],
      "name": "AuctionAlreadyEnded",
      "type": "error"
    },
    {
      "inputs": [],
      "name": "AuctionEndAlreadyCalled",
      "type": "error"
    },
    {
      "inputs": [],
      "name": "AuctionNotYetEnded",
      "type": "error"
    },
    {
      "inputs": [
        {
          "internalType": "uint256",
          "name": "highestBid",
          "type": "uint256"
        }
      ],
      "name": "BidNotHighEnough",
      "type": "error"
    },
    {
      "anonymous": false,
      "inputs": [
        {
          "indexed": false,
          "internalType": "address",
          "name": "winner",
          "type": "address"
        },
        {
          "indexed": false,
          "internalType": "uint256",
          "name": "amount",
          "type": "uint256"
        }
      ],
      "name": "AuctionEnded",
      "type": "event"
    },
    {
      "anonymous": false,
      "inputs": [
        {
          "indexed": false,
          "internalType": "address",
          "name": "bidder",
          "type": "address"
        },
        {
          "indexed": false,
          "internalType": "uint256",
          "name": "amount",
          "type": "uint256"
        }
      ],
      "name": "HighestBidIncreased",
      "type": "event"
    },
    {
      "inputs": [],
      "name": "auctionEndTime",
      "outputs": [
        {
          "internalType": "uint256",
          "name": "",
          "type": "uint256"
        }
      ],
      "stateMutability": "view",
      "type": "function",
      "constant": true
    },
    {
      "inputs": [],
      "name": "beneficiary",
      "outputs": [
        {
          "internalType": "address payable",
          "name": "",
          "type": "address"
        }
      ],
      "stateMutability": "view",
      "type": "function",
      "constant": true
    },
    {
      "inputs": [],
      "name": "highestBid",
      "outputs": [
        {
          "internalType": "uint256",
          "name": "",
          "type": "uint256"
        }
      ],
      "stateMutability": "view",
      "type": "function",
      "constant": true
    },
    {
      "inputs": [],
      "name": "highestBidder",
      "outputs": [
        {
          "internalType": "address",
          "name": "",
          "type": "address"
        }
      ],
      "stateMutability": "view",
      "type": "function",
      "constant": true
    },
    {
      "inputs": [],
      "name": "bid",
      "outputs": [],
      "stateMutability": "payable",
      "type": "function",
      "payable": true
    },
    {
      "inputs": [],
      "name": "withdraw",
      "outputs": [
        {
          "internalType": "bool",
          "name": "status",
          "type": "bool"
        }
      ],
      "stateMutability": "nonpayable",
      "type": "function"
    },
    {
      "inputs": [],
      "name": "auctionEnd",
      "outputs": [],
      "stateMutability": "nonpayable",
      "type": "function"
    }
  ],
  "bytecode": "0x608060405234801561001057600080fd5b50604051620009ba380380620009ba83398181016040528101906100349190610126565b806000806101000a81548173ffffffffffffffffffffffffffffffffffffffff021916908373ffffffffffffffffffffffffffffffffffffffff16021790555081426100809190610195565b60018190555050506101eb565b600080fd5b6000819050919050565b6100a581610092565b81146100b057600080fd5b50565b6000815190506100c28161009c565b92915050565b600073ffffffffffffffffffffffffffffffffffffffff82169050919050565b60006100f3826100c8565b9050919050565b610103816100e8565b811461010e57600080fd5b50565b600081519050610120816100fa565b92915050565b6000806040838503121561013d5761013c61008d565b5b600061014b858286016100b3565b925050602061015c85828601610111565b9150509250929050565b7f4e487b7100000000000000000000000000000000000000000000000000000000600052601160045260246000fd5b60006101a082610092565b91506101ab83610092565b9250827fffffffffffffffffffffffffffffffffffffffffffffffffffffffffffffffff038211156101e0576101df610166565b5b828201905092915050565b6107bf80620001fb6000396000f3fe6080604052600436106100705760003560e01c80633ccfd60b1161004e5780633ccfd60b146100c15780634b449cba146100ec57806391f9015714610117578063d57bde791461014257610070565b80631998aeef146100755780632a24f46c1461007f57806338af3eed14610096575b600080fd5b61007d61016d565b005b34801561008b57600080fd5b506100946102f9565b005b3480156100a257600080fd5b506100ab61045f565b6040516100b8919061061a565b60405180910390f35b3480156100cd57600080fd5b506100d6610483565b6040516100e39190610650565b60405180910390f35b3480156100f857600080fd5b506101016105a7565b60405161010e9190610684565b60405180910390f35b34801561012357600080fd5b5061012c6105ad565b60405161013991906106c0565b60405180910390f35b34801561014e57600080fd5b506101576105d3565b6040516101649190610684565b60405180910390f35b6001544211156101a9576040517fd02e774d00000000000000000000000000000000000000000000000000000000815260040160405180910390fd5b60035434116101f1576003546040517f4e12c1bb0000000000000000000000000000000000000000000000000000000081526004016101e89190610684565b60405180910390fd5b6000600354146102765760035460046000600260009054906101000a900473ffffffffffffffffffffffffffffffffffffffff1673ffffffffffffffffffffffffffffffffffffffff1673ffffffffffffffffffffffffffffffffffffffff168152602001908152602001600020600082825461026e919061070a565b925050819055505b33600260006101000a81548173ffffffffffffffffffffffffffffffffffffffff021916908373ffffffffffffffffffffffffffffffffffffffff160217905550346003819055507ff4757a49b326036464bec6fe419a4ae38c8a02ce3e68bf0809674f6aab8ad30033346040516102ef929190610760565b60405180910390a1565b600154421015610335576040517f44cee29000000000000000000000000000000000000000000000000000000000815260040160405180910390fd5b600560009054906101000a900460ff161561037c576040517f61cfdcf800000000000000000000000000000000000000000000000000000000815260040160405180910390fd5b6001600560006101000a81548160ff0219169083151502179055507fdaec4582d5d9595688c8c98545fdd1c696d41c6aeaeb636737e84ed2f5c00eda600260009054906101000a900473ffffffffffffffffffffffffffffffffffffffff166003546040516103ec929190610760565b60405180910390a160008054906101000a900473ffffffffffffffffffffffffffffffffffffffff1673ffffffffffffffffffffffffffffffffffffffff166108fc6003549081150290604051600060405180830381858888f1935050505015801561045c573d6000803e3d6000fd5b50565b60008054906101000a900473ffffffffffffffffffffffffffffffffffffffff1681565b600080600460003373ffffffffffffffffffffffffffffffffffffffff1673ffffffffffffffffffffffffffffffffffffffff168152602001908152602001600020549050600081111561059e576000600460003373ffffffffffffffffffffffffffffffffffffffff1673ffffffffffffffffffffffffffffffffffffffff168152602001908152602001600020819055503373ffffffffffffffffffffffffffffffffffffffff166108fc829081150290604051600060405180830381858888f1935050505061059d5780600460003373ffffffffffffffffffffffffffffffffffffffff1673ffffffffffffffffffffffffffffffffffffffff1681526020019081526020016000208190555060009150506105a4565b5b60019150505b90565b60015481565b600260009054906101000a900473ffffffffffffffffffffffffffffffffffffffff1681565b60035481565b600073ffffffffffffffffffffffffffffffffffffffff82169050919050565b6000610604826105d9565b9050919050565b610614816105f9565b82525050565b600060208201905061062f600083018461060b565b92915050565b60008115159050919050565b61064a81610635565b82525050565b60006020820190506106656000830184610641565b92915050565b6000819050919050565b61067e8161066b565b82525050565b60006020820190506106996000830184610675565b92915050565b60006106aa826105d9565b9050919050565b6106ba8161069f565b82525050565b60006020820190506106d560008301846106b1565b92915050565b7f4e487b7100000000000000000000000000000000000000000000000000000000600052601160045260246000fd5b60006107158261066b565b91506107208361066b565b9250827fffffffffffffffffffffffffffffffffffffffffffffffffffffffffffffffff03821115610755576107546106db565b5b828201905092915050565b600060408201905061077560008301856106b1565b6107826020830184610675565b939250505056fea264697066735822122076ac0b4d2e0b35e5acb1ade6edd747163c9424024844ec361ac89396362d9dca64736f6c634300080c0033",
  "immutableReferences": {},
  "source": "// SPDX-License-Identifier: MIT\npragma solidity >=0.4.22 <0.9.0;\n\ncontract SimpleAuction {\n    address payable public beneficiary;\n    uint256 public auctionEndTime;\n    address public highestBidder;\n    uint256 public highestBid;\n    mapping(address => uint256) pendingReturns;\n    // set to true at the end, disallows any change. Default: false.\n    bool ended;\n\n    event HighestBidIncreased(address bidder, uint256 amount);\n    event AuctionEnded(address winner, uint256 amount);\n\n    /// Auction has already ended.\n    error AuctionAlreadyEnded();\n    /// There is already a higher or equal bid.\n    error BidNotHighEnough(uint256 highestBid);\n    /// The auction has not ended yet.\n    error AuctionNotYetEnded();\n    /// The function auctionEnd has already been called.\n    error AuctionEndAlreadyCalled();\n\n    constructor(uint256 biddingTime, address payable beneficiaryAddress) {\n        beneficiary = beneficiaryAddress;\n        auctionEndTime = block.timestamp + biddingTime;\n    }\n\n    function bid() external payable {\n        if (block.timestamp > auctionEndTime) revert AuctionAlreadyEnded();\n        if (msg.value <= highestBid) revert BidNotHighEnough(highestBid);\n        if (highestBid != 0) {\n            pendingReturns[highestBidder] += highestBid;\n        }\n        highestBidder = msg.sender;\n        highestBid = msg.value;\n        emit HighestBidIncreased(msg.sender, msg.value);\n    }\n\n    // withdraw a bid that was overbid\n    // prevent re-entrancy attack during withdrawals\n    function withdraw() external returns (bool status) {\n        uint256 amount = pendingReturns[msg.sender];\n        if (amount > 0) {\n            pendingReturns[msg.sender] = 0;\n            // send the amount, if it fails re-assign it back to storage\n            if (!payable(msg.sender).send(amount)) {\n                // no need to call throw here, just reset the amount owing\n                pendingReturns[msg.sender] = amount;\n                return false;\n            }\n        }\n        return true;\n    }\n\n    function auctionEnd() external {\n        if (block.timestamp < auctionEndTime) revert AuctionNotYetEnded();\n        if (ended) revert AuctionEndAlreadyCalled();\n        ended = true;\n        emit AuctionEnded(highestBidder, highestBid);\n        beneficiary.transfer(highestBid);\n    }\n}\n",
  "sourcePath": "E:\\PROGRAMMING\\WORKSPACE\\PROJECTS\\simple-open-auction-web3\\contracts\\SimpleAuction.sol",
  "compiler": {
    "name": "solc",
    "version": "0.8.12+commit.f00d7308.Emscripten.clang"
  },
  "schemaVersion": "3.4.10",
  "updatedAt": "2022-09-29T23:15:13.036Z",
  "networkType": "ethereum",
  "devdoc": {
    "kind": "dev",
    "methods": {},
    "version": 1
  },
  "userdoc": {
    "errors": {
      "AuctionAlreadyEnded()": [
        {
          "notice": "Auction has already ended."
        }
      ],
      "AuctionEndAlreadyCalled()": [
        {
          "notice": "The function auctionEnd has already been called."
        }
      ],
      "AuctionNotYetEnded()": [
        {
          "notice": "The auction has not ended yet."
        }
      ],
      "BidNotHighEnough(uint256)": [
        {
          "notice": "There is already a higher or equal bid."
        }
      ]
    },
    "kind": "user",
    "methods": {},
    "version": 1
  }
}